:020000040800F2
:10000000D00E002001010008651D000889170008B6
:100010003D1800083D1000086F2A0008000000008D
:10002000000000000000000000000000B91F0008F0
:10003000D511000800000000611E0008A52000087E
:100040001B0100081B0100081B0100081B01000820
:100050001B0100081B0100081B0100081B01000810
:100060001B0100081B0100081B0100081B01000800
:100070001B0100081B0100081B0100081B010008F0
:100080001B0100081B0100081B0100081B010008E0
:100090001B0100081B0100081B0100081B010008D0
:1000A0001B0100081B0100081B0100081B010008C0
:1000B0001B0100081B010008552100081B01000856
:1000C0001B0100081B0100081B0100081B010008A0
:1000D0001B010008ED25000861260008852700089F
:1000E0001B0100081B0100081B010008DFF80CD0F1
:1000F00000F0D6FB0048004759360008D00E00201B
:100100000648804706480047FEE7FEE7FEE7FEE7B1
:10011000FEE7FEE7FEE7FEE7FEE7FEE7F520000864
:10012000ED00000830B505462A460B4612F8010BD3
:1001300013F8014B08B1A042F8D01CB1002802D03E
:100140006D1CF1E7284630BDCAB2401E10F8011FF1
:100150008A4202D00029F9D100207047421C10F8D1
:10016000011B0029FBD1801A7047034611F8012BAF
:1001700000F8012B002AF9D11846704770B50646E1
:1001800002F0AEFC046805460A220021304600F069
:1001900060F92C6070BDF0B480EA0102D40F420017
:1001A000B2EB410F02D20246084611464A0042D045
:1001B000C30DDDB2C1F3C752AD1A202D35DAC1F33C
:1001C000160141F4000204B15242C5F1200602FAC0
:1001D00006F12A411044B3EBD05F23D0C4B1012D06
:1001E000A0EBC35009DCF0BC4FF0004202EAC3525E
:1001F000DBB200F5000000F06DB9400000F1807046
:1002000000EBC350A0F1807040EAD170490009E0D2
:10021000490841EAC071A0EBC35000F50000400856
:1002200000EBC350F0BC00F04CB96142012202EB7C
:100230004101001BF6E7F0BC704781F00041AAE7DE
:1002400080F00040A7E780EA010210B502F0004309
:10025000400022D04A001FD0010E01EB1261C0F312
:100260005600C2F3560240F4000042F40002A0FB24
:10027000022000047F39140400D0401C50EA1240D0
:1002800001D44000491EC2B20C0604EBD010401C41
:100290004008802A02D003E0002010BD20F00100B9
:1002A000002900DA0020184310BD30B480EA0102B2
:1002B00002F0004530F0004221F0004013D090B130
:1002C000C30DD40DC2F31601C0F31600E41A41F4B5
:1002D000000140F400027D34914201D3641C00E02F
:1002E0004900002C02DA30BC002070474FF40000B7
:1002F0000023914201D3891A034340084FEA410188
:10030000F7D151B1914202D14FF0004105E002D244
:100310004FF0010101E06FF0010103EBC4502844EC
:1003200030BC00F0CEB8C10F80EAE0700844CA07C4
:100330009623002100F0CEB896230022114600F04B
:10034000C9B800F0004220F00040C10DC0F3160013
:1003500040F400007F2901DA00207047962903DC71
:10036000C1F19601C84001E096398840002AF4D0D6
:100370004042704720F00040C10DC0F3160040F429
:1003800000007F2901DA00207047962903DCC1F1C3
:100390009601C8407047963988407047002801DBB5
:1003A000C0F10040002901DBC1F1004181427047EA
:1003B000002801DBC0F10040002901DBC1F1004150
:1003C0008842704730B50B460146002020220124A8
:1003D00009E021FA02F59D4205D303FA02F5491B13
:1003E00004FA02F52844151EA2F10102F1DC30BD29
:1003F0002DE9F05F0546002092469B46884606465A
:10040000814640241BE0284641464746224600F0EC
:1004100068FA53465A46C01A914110D311461846FD
:10042000224600F04FFA2D1A67EB01084F4622468C
:100430000120002100F046FA17EB00094E41201E72
:10044000A4F10104DFDC484631462A464346BDE8B4
:10045000F09F2DE9F04791460F468046044600265E
:1004600014F8015B2DB100F05FFA0068405DC00731
:10047000F6D12B2D02D02D2D18D0641E4A463946B8
:10048000204600F055FA27B13968A14201D1C7F8DA
:10049000008071054FF002040BD54042002803DDB7
:1004A00002F01EFB0460A007BDE8F08746F48066FA
:1004B000E4E70028F8DA02F013FB04606FF0004074
:1004C000F2E70029A8BF7047401C490008BF20F090
:1004D0000100704710B4B0FA80FC00FA0CF050EA4A
:1004E000010404BF10BC704749B1CCF1200421FACB
:1004F00004F411FA0CF118BF012121430843A3EBC6
:100500000C01CB1D4FEA00614FEA102042BF0020D2
:1005100010BC704700EBC35010440029A4BF10BCAE
:100520007047401C490008BF20F0010010BC704714
:100530002DE9FE4F804681EA0300C00F0C46009073
:1005400021F0004123F00045B8EB0200A94105D29B
:100550004046214690461C460B46024623F000408A
:10056000104347D0270DC7F30A00C3F30A51029086
:10057000401A019040286BDAC3F3130040F4801B4B
:100580000098924620B10023D2EB030A63EB0B0BD9
:1005900001985946C0F14002504600F093F90646D2
:1005A0000D4650465946019A00F0ABF910EB080091
:1005B0006141002487EA115284EAE7731A4340D06C
:1005C000009A62B3019A012A4FEA075215DC001B18
:1005D00061EB02014FF0004202EA0752CDE900420E
:1005E000001C41F5801132462B4600F0FFF903B0A4
:1005F000BDE8F08F40462146F9E7001B61EB0201A0
:10060000001C41F5801300185B412018A2F500176B
:1006100047EB030140EAD570B6196D4111E06D0852
:100620004FEA360645EAC0754FEA0752001B61EBF8
:100630000201001C41F5801149084FEA3000001901
:10064000514132462B4603B0BDE8F04F00F0BFB930
:100650000098012240000023D0EB020263EBE0731C
:10066000009821464FEAE074B8EB000061EB04010A
:10067000E9E783F000435BE781F0004158E72DE9AB
:10068000FE4F81EA030404F0004421F0004100948D
:100690004FF0000B23F0004350EA01045ED052EA11
:1006A00003045BD0C3F30A54C1F30A552C44A4F2EB
:1006B000F3340194A0FB0254C1F3130141F48011FF
:1006C000C3F3130343F4801301FB024400FB034E06
:1006D000840A970A44EA815447EA8357A4FB0768CF
:1006E00002958D0A05FB07854FEA932C04FB0C54F9
:1006F0002705029D4FEA065847EA1637B5EB08056D
:100700006EEB070C870E920E47EA811742EA8312BE
:10071000A7FB0201B6EB0B0164EB00042B0D43EACF
:100720000C335E1844EB1C50DA465146E7FB0201DD
:10073000C5F313044FEA0B3343EA14534FEA043270
:10074000019C43EA0603A4F10C040294009CCDE949
:1007500000B400F04BF903B0BDE8F08F0020014673
:10076000F9E72DE9F04D81EA030404F0004B21F094
:10077000004514464FF0000A23F0004150EA0502FC
:1007800020D054EA01021DD0C5F30A570246C5F332
:100790001303C1F31300C1F30A5640F4801543F468
:1007A0008013A7EB0608101BD64608F2FD3873EB42
:1007B000050002D308F1010801E092185B41B8F18D
:1007C000000F03DA00200146BDE8F08D00204FF451
:1007D0008011064684460EE0171B73EB050705D310
:1007E000121B63EB050306434CEA010C49084FEA70
:1007F000300092185B4150EA0107EDD152EA030044
:1008000012D082EA040083EA0501084305D0101BD8
:10081000AB4106D20122002306E000224FF0004344
:1008200002E06FF0010253101AEB06004CEB085186
:1008300010EB0A0041EB0B01BDE8F04D00F0C7B82A
:10084000C1F30A52C1F3130140F2FF3341F48011A6
:100850009A4202DA00200146704740F233439A423E
:10086000A2F2334202DC524200F03BB800F02AB858
:1008700030B5041E71F1000404DB4FF00044404227
:1008800064EB0101141E73F1000405DB1C464FF0FC
:100890000043524263EB0403994208BF904230BDCB
:1008A000064C074D06E0E06840F0010394E80700BD
:1008B00098471034AC42F6D3FFF71CFCB03D00085B
:1008C000D03D0008202A04DB203A00FA02F1002083
:1008D00070479140C2F1200320FA03F3194390407E
:1008E0007047202A04DB203A21FA02F000217047E9
:1008F00021FA02F3D040C2F1200291400843194688
:100900007047202A06DBCB17203A41FA02F043EA6F
:10091000E07306E041FA02F3D040C2F120029140B8
:10092000084319467047000000487047683D0008BA
:100930002DE9F05F82460078002715468B460AF1C4
:100940000104B946302801D09DB113E014F8010B21
:100950000127782803D0582801D045B10AE00DB10D
:10096000102D07D10027102514F8010B02E00825EF
:1009700000E00A250026B0460EE005FB080005FB56
:1009800006F1012701EB10461FFA80F8B6F5803F0B
:1009900000D3B94614F8010B294600F075F8002879
:1009A000EBDABBF1000F05D00FB1641E00E0544636
:1009B000CBF80040B9F1000F06D002F091F8022107
:1009C0000160C81EBDE8F09F48EA0640FAE710B58E
:1009D000141E73F1000408DA401C41F10001921862
:1009E0005B411A4301D120F0010010BD2DE9F04D0B
:1009F00092469B4611B1B1FA81F202E0B0FA80F260
:100A000020329046FFF75EFF04460F4640EA0A0098
:100A100041EA0B0153465A46084313D0114653EAA4
:100A2000010019D0C8F140025046FFF75AFF0546B1
:100A30000E46504659464246FFF744FF084305D04C
:100A4000012004E020463946BDE8F08D0020054332
:100A500046EAE0762C4337430A986305E40AA0EBA4
:100A600008000022FD0A44EA47540A3002D500205B
:100A70000146E9E7010510196941DDE9084500195A
:100A80006941BDE8F04DA2E73A2800D2303820F0A5
:100A90002002412A01D3A2F13700884201D34FF04E
:100AA000FF30704700B585B00121480201F0FAF926
:100AB00000F040F8002000908DF8040001208DF82F
:100AC00005004FF4602002900020039001208DF873
:100AD000100069460F4800F057F80523012209214C
:100AE0000C4800F079F80B4800F0D2F8094800F003
:100AF000DFF800BF074800F02FF80128FAD00121E5
:100B0000044800F00CF80121024800F0C6F805B0D6
:100B100000BD000000240140CA430260704721B1BB
:100B2000826842F00102826003E0826822F00102E2
:100B30008260704708B50121092001F0B3F9022055
:100B4000ADF8000000208DF803006946014800F070
:100B500031FC08BD000C0140014600208A6802F00B
:100B600004020AB1012000E0002070470146C86C71
:100B700080B270470246002013680B400BB1012081
:100B800000E000207047000030B50246002000233E
:100B900050680F4C20400D790C6844EA052420432E
:100BA000506090680B4C2040D1E902542C434D79A1
:100BB00044EA450420439060D06A20F470000C7C25
:100BC000641EE4B2234340EA0350D06230BD00000B
:100BD000FFFEF0FFFDF7F1FFF0B504460D460020E3
:100BE0000021092D11DDE068A5F10A0606EB460794
:100BF000072606FA07F18843A5F10A0606EB460622
:100C000003FA06F10843E0600CE0206905EB4507B4
:100C1000072606FA07F1884305EB450603FA06F1B5
:100C200008432061072A0FDA606B561E06EB860721
:100C30001F2606FA07F18843561E06EB860605FABC
:100C400006F10843606322E00D2A0FDA206BD61FFD
:100C500006EB86071F2606FA07F18843D61F06EB28
:100C6000860605FA06F10843206310E0E06AA2F167
:100C70000D0606EB86071F2606FA07F18843A2F148
:100C80000D0606EB860605FA06F10843E062F0BDA4
:100C9000816841F008018160704721B1826842F4A7
:100CA000A002826003E0826822F4A00282607047A2
:100CB000816841F0040181607047000010B54FF475
:100CC000E13002F083FD4FF4E13002F0E9FE02F082
:100CD0003BFF4FF4E13001F0F5FC02F0FDFD02F0C6
:100CE000E3FBFFF7DFFE03200D49086000F04EFD37
:100CF0000C4800F0AFFC02F09FFB02F035FE00F064
:100D00009FFD00F0BFFD00F095FF0748007840F020
:100D100080000549087005A001F0ACFE10BD000080
:100D200080000020D809002058000020B5E7BBFA59
:100D3000B3F5CABCBBAF0D0A0000000010B5634894
:100D4000006830B96248006818B962480068002835
:100D500039D05E48006878B100F0DCFF5B4800687D
:100D6000401E5A4908600846006820B95A48006881
:100D7000401C5949086010BD5548006878B100F022
:100D8000DDFF53480068401E51490860084600686E
:100D900020B951480068401C4F490860EBE74D48B6
:100DA0000068002830D000F04FFF4A480068401E1D
:100DB000484908600846006820B947480068401C58
:100DC00045490860D7E74548007800F080000028D2
:100DD00075D04248007800F04000B0B100F034FF18
:100DE00000203F49C86025213E4800F0BDFE2D216E
:100DF0003D4800F0B9FE3B4800F006FF3A4800F0DD
:100E000003FF3AA001F036FE59E03448007800F0C4
:100E1000200028B137480068404200F029FF4EE02A
:100E20002E48007800F0100020B13248006800F031
:100E30001FFF44E02948007800F0040048B9274823
:100E4000007800F0020020B92448007800F0080083
:100E500058B3294820490968405C312808D123202B
:100E60001A49086000F056FF24A001F003FE26E0B6
:100E7000214819490968405C322808D128201449C2
:100E8000086000F05BFF1FA001F0F4FD17E01A48B6
:100E900011490968405C302808D114200D490860C8
:100EA00000F0D2FE19A001F0E5FD08E012480A4961
:100EB0000968405C4C2802D10020074908600648B8
:100EC000016814A001F0D6FD00BF54E7EC0000203B
:100ED000F0000020F4000020100100205800002045
:100EE000F8000020140A0020F4090020D6B1D0D068
:100EF0000D0A00004800002085000020D7F30D0AED
:100F000000000000D3D20D0A00000000D6B10D0A87
:100F10000000000069203D3D2025640D0A0000000E
:100F20000948007878B108480078022808D00328DA
:100F300005D0062802D0072804D102E002E001E033
:100F400000E000BF00BF70476800002010B53448C3
:100F5000006810B933480068B0B13148006838B152
:100F600000F0D8FE2E480068401E2D49086010BDD4
:100F70002C480068002850D000F0E0FE29480068A6
:100F8000401E28490860F2E72748007800F08000FA
:100F9000002842D02448007800F0400098B100F0CA
:100FA00053FE00202149C8602521214800F0DCFDC6
:100FB0002D21204800F0D8FD1D4800F025FE1D48D9
:100FC00000F022FE29E01848007800F0200028B147
:100FD00019480068404200F04BFE1EE012480078BD
:100FE00000F0100020B11448006800F041FE14E049
:100FF0000D48007800F0040028B12320084908605B
:1010000000F088FE09E00848007800F0020020B1F6
:1010100023200449086000F091FE00BFA7E700000C
:10102000EC000020F000002058000020F800002014
:10103000140A0020F40900204800002000BFFEE749
:1010400010B52021014800F040FA10BD000C01400D
:1010500008B50121082000F025FF2020ADF8000090
:1010600048208DF803006946014800F0A3F908BD47
:10107000000C014010B50446012C05D101222021AD
:10108000044800F02FFA04E000222021014800F07B
:1010900029FA10BD000C014008B50121082000F01C
:1010A00001FF2020ADF8000001208DF80200102083
:1010B0008DF803006946044800F07CF901222021E4
:1010C000014800F00FFA08BD000C01407CB500207B
:1010D0000090019000F054F8012849D1002428E044
:1010E000002523E000BFFFF7ABFF0028FBD0FFF790
:1010F000A7FF012816D11E2002F07EF9FFF7A0FFFE
:10110000012812D11DF80400C5F107020121914008
:101110000843C0B20DF8040000BFFFF791FF01289B
:10112000FBD002E06FF001007CBD6D1C082DD9DB07
:10113000641C052CD4DB9DF800009DF801100844C8
:101140009DF8021008449DF803100844C6B29DF8AB
:101150000400B04209D19DF80200074908609DF8DB
:101160000000064908600020DEE76FF00200DBE7C0
:101170004FF0FF30D8E7000070000020740000201E
:1011800010B5002400BFFFF787FF0020FFF772FFB4
:10119000142002F019F90120FFF76CFF1E2002F065
:1011A0002BF9FFF755FFFFF74BFF58B900BFFFF7CB
:1011B00047FF0028FBD000BFFFF742FF0128FBD00C
:1011C000012010BD2046641C0A2802DB4FF0FF30CE
:1011D000F7E7D8E77047000010B500F089F9094932
:1011E000C861FFF773FF00F0A5F900F081F9054928
:1011F000C969401A0349C8610846C16902A001F0E3
:1012000039FC10BD3001002074696D655B313030F0
:10121000305D3A25640D0A0010B500F069F9054902
:10122000C86000F065F90349C968401A0149C860FF
:1012300010BD00003001002010B500F059F9084938
:10124000086202F059FB00F053F90549096A401A97
:10125000034908620846016A02A001F00BFC10BDB8
:101260003001002074696D655B323030305D3A25A5
:10127000640D0A0010B500F03BF90549886100F0E3
:1012800037F903498969401A0149886110BD000096
:101290003001002010B500F02BF90649086102F07A
:1012A0007DFA00F025F903490969401A01490861EE
:1012B00010BD00003001002010B500F019F90549FB
:1012C000086000F015F903490968401A01490860EF
:1012D00010BD00003001002010B500F009F90549EB
:1012E000486000F005F903494968401A014948601F
:1012F00010BD00003001002010B500F0F9F80C49D5
:10130000486102F09DFA00F051F90A4802F050FCE1
:1013100028B1084908A001F0ADFB00F025F800F065
:10132000E7F803494969401A0149486110BD0000C6
:1013300030010020660A0020B4A6C0EDCFFBCFA28A
:101340003A2025730D0A000010B500F0D1F80549C8
:10135000886000F0CDF803498968401A0149886027
:1013600010BD00003001002010B50A4800780A497D
:101370000870084600784C280BD103200749086004
:101380000449491C0648FEF7F0FE054905A001F096
:1013900071FB10BD660A0020840000208000002040
:1013A0008500002066696E645F6C696E653A202571
:1013B000730D0A002DE9F0410246002500260020A9
:1013C00000230024002791F803C00CF00F0591F8CA
:1013D00003C00CF0100CBCF1000F03D091F802C058
:1013E0004CEA050591F800C0BCF1000F31D014683B
:1013F00000202BE04FF0010C0CFA00F3B1F800C014
:101400000CEA03069E4220D183004FF00F0C0CFA29
:1014100003F7BC4305FA03FC4CEA040491F803C04B
:10142000BCF1280F06D14FF0010C0CFA00FCC2F8F9
:1014300014C00AE091F803C0BCF1480F05D14FF089
:10144000010C0CFA00FCC2F810C0401C0828D1D3D3
:101450001460B1F800C0BCF1FF0F34DD5468002007
:101460002EE000F1080C4FF0010808FA0CF3B1F877
:1014700000C00CEA03069E4221D183004FF00F0CFE
:101480000CFA03F7BC4305FA03FC4CEA040491F898
:1014900003C0BCF1280F05D100F1080C08FA0CF8C4
:1014A000C2F8148091F803C0BCF1480F07D100F1D5
:1014B000080C4FF0010808FA0CF8C2F81080401C24
:1014C0000828CED35460BDE8F0810246002093681E
:1014D0000B400BB1012000E00020704741617047D4
:1014E000016170470AB1016100E04161704700008D
:1014F00000BF0E4801684FF0E02082690B48006889
:101500008142F6D10A48006800EB4003C3EBC010EB
:10151000C2EBC000064B1B68B0FBF3F001EB4103CC
:10152000C3EBC11300EBC30070470000280000208C
:10153000300000202DE9F041002402211648FFF779
:1015400019FB012814D11448FFF710FB0546FEF7DC
:10155000F3FE044611492046FEF775FE05464FF09E
:101560008B41FEF7A2FE044602210B48FFF7D4FA96
:101570000B492046FEF799FE07460A49FEF763FE2F
:1015800006460849FEF75CFE0546FEF7DAFE4042D5
:1015900005490860BDE8F0810024014000404E4547
:1015A0000000C8430000C8427800002010B525495B
:1015B00025480068FEF7F2FE24D800212248006882
:1015C000FEF7F6FE1ED82148007801280BD002282D
:1015D00002D0042815D10DE01D48007840F002002B
:1015E0001B4908700DE01A48007840F001001849C6
:1015F000087006E01648007840F0040014490870AE
:1016000000BF1EE01148007801280BD0022802D04C
:10161000042815D10DE00E48007820F002000C4996
:1016200008700DE00A48007820F0010008490870B1
:1016300006E00748007820F004000549087000BF64
:1016400000BF10BD00002041640000206A0000209F
:10165000680000201FB5044645492068884204D12F
:101660000121042000F01EFC10E04249206888425D
:1016700004D10121082000F015FC07E03E49206854
:10168000884203D10121102000F00CFC3849A068E9
:10169000884204D10121042000F004FC10E0354907
:1016A000A068884204D10121082000F0FBFB07E07C
:1016B0003149A068884203D10121102000F0F2FBDB
:1016C0002E492069884204D10121C01400F0EAFBB0
:1016D00019E02069B0F1804F04D10121084600F0E3
:1016E000C1FB10E026492069884204D10121022073
:1016F00000F0B8FB07E023492069884203D10121AB
:10170000042000F0AFFBA088ADF80C0010208DF88D
:101710000F0003208DF80E0003A92068FFF74AFE92
:10172000A089ADF80C0048208DF80F0003A9A0682F
:10173000FFF740FEA1882068FFF7D0FE4FF6FF704C
:10174000ADF804004720ADF800000020ADF8060019
:10175000ADF802006946206900F0F6FE012120691B
:1017600000F05FFD47F2305060610020A0611FBDB6
:1017700000080140000C014000100140002C014015
:10178000000400400008004000BFFEE710B54FF025
:10179000804008490861084888604FF4804088818B
:1017A000054808604FF4004088800846FFF752FF64
:1017B00010BD0000D8090020000C01401E488088A0
:1017C000401C00B21C4988800846C088401C00B2FA
:1017D000C88008460089401C00B20881084640893C
:1017E000401C00B2488108468089401C00B28881B4
:1017F0000846C089401C00B2C8810846008A401CC7
:1018000000B208820846408A401C00B2488208465E
:10181000808A401C00B2888208460078012804DBD8
:1018200008464088401C488004E003480078401C7B
:1018300001490870704700001801002000BFFEE752
:1018400010B50C480C490860002088800B4888605F
:10185000402088810A4808614020888208488861C1
:10186000802088830020C87732208877084600F0DF
:101870002BF810BD00040040F409002000080140CE
:10188000000C014010B50C480C4908600420888009
:101890000B488860802088810A480861801588820A
:1018A00008488861401588830020C8772A208877F7
:1018B000084600F009F810BD00040040140A00209A
:1018C00000080140000C014010B588B00446794979
:1018D0002069884204D10121042000F0E3FA10E0DD
:1018E00075492069884204D10121082000F0DAFA04
:1018F00007E072492069884203D10121102000F0DD
:10190000D1FA6C49A069884204D10121042000F079
:10191000C9FA10E06849A069884204D10121082071
:1019200000F0C0FA07E06549A069884203D10121AF
:10193000102000F0B7FA5F49A068884204D1012165
:10194000042000F0AFFA10E05B49A068884204D19F
:101950000121082000F0A6FA07E05849A068884253
:1019600003D10121102000F09DFA554920688842DA
:1019700004D10121C01400F095FA19E02068B0F1FB
:10198000804F04D10121084600F06CFA10E04D4967
:101990002068884204D10121022000F063FA07E0A8
:1019A00049492068884203D10121042000F05AFAF5
:1019B000A08AA18B0843ADF81C0010208DF81F00F1
:1019C00003208DF81E0007A92069FFF7F3FCA0890A
:1019D000ADF81C0018208DF81F0003208DF81E00A4
:1019E00007A9A068FFF7E6FCA18A2069FFF776FD4A
:1019F000A18BA069FFF772FD40F2E730ADF814004B
:101A00004720ADF810000020ADF81600ADF8120028
:101A100004A9206800F098FD6020ADF800000120C6
:101A2000ADF802000020ADF80600ADF80800A0886F
:101A300040B96946206800F029FC0821206800F0C0
:101A400071FC22E0A088042808D16946206800F0D3
:101A500073FC0821206800F0C1FC16E0A08808286B
:101A600008D16946206800F0C7FC0821206800F012
:101A700013FD0AE0A0880C2807D16946206800F011
:101A800015FD0821206800F04FFD0121206800F0BD
:101A9000B9FB0121206800F0C4FB09492068884295
:101AA00003D10121206800F0C8FB0020A077E07777
:101AB00008B010BD00080140000C014000100140BA
:101AC000002C0140000400400008004070B50446AE
:101AD0000D46E57745B9A18A2069FFF701FDA18B85
:101AE000A069FFF7FBFC07E0A18A2069FFF7F6FC7D
:101AF000A18BA069FFF7F4FC70BD00002DE9F04751
:101B000004460E46642E00DD6426A6773046FEF7B6
:101B100013FC81461249FEF7C8FB80461149FEF7C7
:101B200092FB0746FEF726FC85B2A08830B1042858
:101B300007D0082808D00C280DD108E02068858639
:101B40000AE02068058707E02068858704E02068B0
:101B5000A0F8405000E000BF00BFBDE8F0870000E3
:101B60000000C84200C079442DE9F04704460D4604
:101B7000642D00DD642515F1640F01DA6FF0630553
:101B800035B9204600F04BF80020A077BDE8F0877B
:101B9000002D05DD00212046FFF798FFA57705E021
:101BA00001212046FFF792FF6842A077A07FFEF751
:101BB000C3FB81461249FEF778FB80461149FEF7C8
:101BC00042FB0746FEF7D6FB86B2A08830B1042858
:101BD00007D0082808D00C280DD108E02068868698
:101BE0000AE02068068707E02068868704E020680E
:101BF000A0F8406000E000BF00BF00BFC6E70000E3
:101C00000000C84200C0794410B50446E17F204678
:101C1000FFF75CFFA17F2046FFF770FF10BD10B5F6
:101C20000446A18A2069FFF759FCA18BA069FFF740
:101C300055FC10BD00200249C8770249C87770479B
:101C4000F4090020140A002010B532210648FFF7DD
:101C50008BFF2A210548FFF787FF0348FFF7D4FFD2
:101C60000248FFF7D1FF10BDF4090020140A00203C
:101C70002DE9F04107463846FEF755FB80464146C0
:101C80001D4800F0B3F806461C493046FEF790FBAD
:101C900000D21A4E1A493046FEF780FB00D2184E89
:101CA00031461848FEF777FA8046FEF74AFB0546AC
:101CB00031461548FEF7C1FA8046FEF742FB04465E
:101CC000642D00DD6425642C00DD6424002D00DA21
:101CD0001E25002C00DA1E2469B20C48FFF744FFD1
:101CE00061B20B48FFF740FF0848FFF78DFF084837
:101CF000FFF78AFFBDE8F081F800002000004842AD
:101D0000000048C20000144200003442140A0020BF
:101D1000F409002010B532210648FFF725FF042101
:101D20000548FFF721FF0348FFF76EFF0248FFF762
:101D30006BFF10BDF4090020140A002010B5052126
:101D40000648FFF711FF2A210548FFF70DFF03485A
:101D5000FFF75AFF0248FFF757FF10BDF4090020B4
:101D6000140A00207047000070B5002100230F22E4
:101D7000C47804B3154C246804F4E064C4F5E0644A
:101D8000210AC1F10403CA40447804FA03F18478BB
:101D90001440214309010E4C0678A155047804F043
:101DA0001F050124AC4005786D11AD0005F1E0255B
:101DB000C5F8004109E0047804F01F050124AC4097
:101DC000044D0678761145F8264070BD0CED00E014
:101DD00000E400E080E100E002490143024A1160B2
:101DE000704700000000FA050CED00E02DE9F04717
:101DF00004460D462946E068FEF7CDF9E060164935
:101E0000E068FEF7D5FA01D21348E0601349E068B4
:101E1000FEF7C4FA01D21148E06028462169FEF7B6
:101E20000CFA074625613946A068FEF70CFA804691
:101E3000E1686068FEF707FA814629462068FEF7E8
:101E400002FA82464946FEF7A6F906464146FEF7E3
:101E5000A2F9BDE8F08700000000F0410000F0C1E9
:101E60007047000029B1064AD2690243044BDA6187
:101E700004E0034AD2698243014BDA6170470000F3
:101E80000010024029B1064A12690243044B1A614C
:101E900004E0034A12698243014B1A617047000053
:101EA0000010024029B1064A92690243044B9A612C
:101EB00004E0034A92698243014B9A617047000033
:101EC0000010024029B1064AD2680243044BDA608E
:101ED00004E0034AD2688243014BDA607047000095
:101EE0000010024030B500210022002400232D4DB7
:101EF0006D6805F00C0121B1042905D0082923D112
:101F000005E0294D056022E0274D05601FE0254DC5
:101F10006D6805F47012234D6D6805F48034022558
:101F200005EB92421CB9214D554305600BE01D4D58
:101F30006D6805F400351DB11C4D5543056002E088
:101F4000194D5543056002E0174D056000BF00BF05
:101F5000144D6D6805F0F0010909154D6B5C0568BD
:101F6000DD4045600F4D6D6805F4E061090A104DD4
:101F70006B5C4568DD4085600A4D6D6805F4605115
:101F8000C90A0B4D6B5C4568DD40C560054D6D6849
:101F900005F44041890B074D6B5CC568B5FBF3F553
:101FA000056130BD0010024000127A0000093D00BA
:101FB0001400002024000020704710B500F002F843
:101FC00010BD00000CB5002001900090334800685F
:101FD00040F480303149086000BF3048006800F4A8
:101FE000003000900198401C0190009818B90198A9
:101FF000B0F5A06FF1D12948006800F4003010B1AD
:102000000120009001E0002000900098012843D1B9
:102010002348006840F01000214908600846006825
:1020200020F0030008600846006840F002000860E5
:102030001A484068194948600846406848600846A0
:10204000406840F4806048600846406820F47C1096
:1020500048600846406840F4E81048600846006858
:1020600040F08070086000BF0C48006800F000700D
:102070000028F9D00948406820F00300074948606B
:102080000846406840F00200486000BF03484068CE
:1020900000F00C000828F9D10CBD0000001002402F
:1020A0000020024010B500F001F810BD10B50E4838
:1020B0000068401C0C4908600C48007800B910BD4D
:1020C0000B480078401C0A490870087800EBD07172
:1020D0004910A0EB4101064A11701046007808B182
:1020E000FFF76CFB00BFEAE7280000203800002063
:1020F0003900002010B51348006840F00100114974
:10210000086008464068104908400E494860084683
:1021100000680E4908400B4908600846006820F432
:10212000802008600846406820F4FE0048604FF4B4
:102130001F008860FFF741FF4FF00060044908600E
:1021400010BD0000001002400000FFF8FFFFF6FE87
:1021500008ED00E010B50121084800F07DF860B1FD
:102160000748008840F400400549088001210348E1
:1021700000F054F8002000F031F810BD00080040D5
:102180005A0000207FB505460C4601210420FFF7C8
:1021900069FEADF80450ADF800400020ADF806002F
:1021A000ADF8020069460C4800F0CEF90122114654
:1021B000094800F062F81E208DF80C0001208DF80F
:1021C0000D0002208DF80E0001208DF80F0003A8ED
:1021D000FFF7CAFD7FBD00000008004010B50446AF
:1021E00044B10021064800F0ACF90121044800F098
:1021F00018F803E00021024800F013F810BD0000B9
:102200000008004021B1028842F08002028004E010
:1022100002884FF67F731A4002807047CA430282D9
:10222000704721B1028842F00102028004E0028876
:102230004FF6FE731A400280704731B1B0F8442067
:1022400042F40042A0F8442005E0B0F84420C2F374
:102250000E02A0F84420704730B50246002000234B
:102260000024158A05EA0103958905EA010413B1E2
:102270000CB1012000E0002030BD1AB183890B436E
:10228000838102E083898B438381704770B500248A
:1022900000220023058C4FF6FE7635400584028C23
:1022A0008388048B4FF68F752C40B51E2C400D880B
:1022B0002C43751E2A400D892A434D882A43144D0C
:1022C000A8420BD0134DA84208D0134DA84205D008
:1022D000124DA84202D0124DA84213D14FF6F77505
:1022E0002A404D892A434FF6FB752A408D882A43A0
:1022F0004FF6FF652B404FF6FF552B408D892B4342
:10230000CD892B4383800483CD888586028470BD6C
:10231000002C0140003401400040014000440140D5
:10232000004801400A460021018B4FF6F77319401F
:10233000114301837047000070B500240022002380
:10234000058C4FF6EF7635400584028C8388048B2C
:1023500048F6FF752C404FF6FF452C400D884FF690
:10236000FF7606EA05252C434FF6DF752A400D89D6
:1023700006EA05152A434D8806EA05152A43154D38
:10238000A84202D0144DA8421DD14FF67F752A40B5
:102390004D894FF6FF7606EA05152A434FF6BF75BD
:1023A0002A408D8806EA05152A434FF6FF352B4053
:1023B0004FF2FF752B408D8906EA85052B43CD89A9
:1023C00006EA85052B4383800483CD880587028434
:1023D00070BD0000002C0140003401400A4600217D
:1023E000018B4FF2FF7319404FF6FF7303EA02238C
:1023F000194301837047000070B5002400220023B8
:10240000058C4FF6FF6635400584028C8388848BEB
:102410004FF68F752C404FF6FC752C400D882C43E1
:102420004FF6FF552A400D894FF6FF7606EA05253F
:102430002A434D8806EA05252A43154DA84202D0B5
:10244000144DA8421DD14FF2FF752A404D894FF619
:10245000FF7606EA05252A434FF6FF352A408D8888
:1024600006EA05252A434EF6FF752B404DF6FF750B
:102470002B408D8906EA05152B43CD8906EA051503
:102480002B4383808483CD888587028470BD0000C0
:10249000002C0140003401400A460021818B4FF698
:1024A000F7731940114381837047000070B5002213
:1024B00000230024058C4EF6FF7635400584038CFE
:1024C0008488828B48F6FF752A404FF6FF452A40E4
:1024D0000D884FF6FF7606EA05252A434DF6FF756F
:1024E0002B400D8906EA05352B434D8806EA053554
:1024F0002B430B4DA84202D00A4DA84208D14BF6FF
:10250000FF752C408D894FF6FF7606EA85152C4322
:1025100084808283CD88A0F84050038470BD000081
:10252000002C0140003401400A460021818B4FF20B
:10253000FF7319404FF6FF7303EA022319438183A7
:102540007047818470470000002202881D4B98422A
:102550000ED01D4B98420BD0B0F1804F08D01B4BD2
:10256000984205D01A4B984202D01A4B984204D197
:102570004FF68F731A404B881A43174B984207D077
:10258000164B984204D04FF6FF431A40CB881A43AB
:1025900002808B8883850B8803850A4B98420BD079
:1025A000094B984208D00E4B984205D00D4B9842EB
:1025B00002D00D4B984201D10B7A0386012383820E
:1025C00070470000002C014000340140000400402E
:1025D00000080040000C00400010004000140040C3
:1025E00000400140004401400048014010B540F265
:1025F0002551164800F077F9012825D1134800F03D
:102600002DFAC4B20A2C0BD011480078042807DA3E
:102610000F490878411C0E4A11700E490C540DE008
:1026200000200C490A4A1278885409490870012090
:102630000949087007490948FDF797FD40F22551FF
:10264000024800F0D9F800BF10BD0000003801407A
:10265000510000204C0000205200002053000020B8
:1026600010B540F22551134800F03DF908B3114868
:1026700000F0F4F9C4B210480088B0F5806F12DAA7
:1026800000210E48FFF75DFF0B48008810B90120BC
:10269000FFF7A4FD084801880088401C064A108006
:1026A0000748445405E00448008840F400400249CB
:1026B000088010BD004400405A000020000800407F
:1026C000D805002010B586B0044601210420FFF78C
:1026D000E9FB01214804FFF7C5FB274800F0A8F8F3
:1026E0000420ADF8100003208DF8120018208DF89A
:1026F000130004A92148FEF75DFE0820ADF8100084
:1027000004208DF8130004A91C48FEF753FE009422
:102710000020ADF80400ADF80600ADF80800ADF8F3
:102720000C000C20ADF80A006946134800F02AF9A5
:102730000121114800F06FF8012240F225510E48A6
:1027400000F0FBF826208DF8140000208DF815000D
:102750008DF8160001208DF8170005A8FFF704FB7F
:1027600041F61F416320FFF70DFD0020044908805A
:10277000FFF734FD06B010BD0044004000080140E2
:102780005A00002010B540F22551174800F0ABF870
:10279000012827D1144800F061F9C1B2134802683A
:1027A0000068401C114B186011488154184600689D
:1027B000802806DA18460068401E0D49085C0A2881
:1027C0000BD1002109480068401E094A115400201D
:1027D0000649086001200749086040F22551024877
:1027E00000F00AF810BD0000004800404000002042
:1027F000580100203C00002010B50022002340F6C4
:102800006A14A14200D100BF0A1201249440A3B26D
:10281000DC43048010BD21B1828942F400528281E0
:1028200004E082894DF6FF731A40828170470000F0
:1028300010B504462048844209D101218803FFF7DE
:1028400041FB00214FF48040FFF73CFB32E01B4886
:10285000844209D101214804FFF714FB00214FF401
:102860000030FFF70FFB25E01548844209D1012114
:102870008804FFF707FB00214FF48020FFF702FBDD
:1028800018E01048844209D10121C804FFF7FAFA80
:1028900000214FF40020FFF7F5FA0BE00A488442CC
:1028A00008D101210805FFF7EDFA00214FF480104F
:1028B000FFF7E8FA10BD0000003801400044004076
:1028C00000480040004C00400050004002460020FC
:1028D000B1F5007F00D100BF13880B400BB1012080
:1028E00000E00020704770B5024600240023002558
:1028F000002040F66A16B14200D100BFC1F3421574
:1029000001F01F03012606FA03F3012D02D1968977
:10291000334006E0022D02D1168A334001E0968A48
:1029200033400C12012606FA04F41688344013B121
:102930000CB1012000E0002070BDF0B5034600247A
:1029400000260025002040F66A17B94200D100BFDA
:102950001846C1F3421401F01F06012707FA06F5D5
:10296000012C01D10C3004E0022C01D1103000E028
:1029700014301AB107682F43076002E00768AF43BD
:102980000760F0BD2DE9F04786B005460E460024ED
:10299000A24600BFA1460027B08900B100BF2F4664
:1029A0002C8A4CF6FF700440F08804432C82AC89DA
:1029B0004EF6F3100440B08831890843718908430A
:1029C0000443AC81AC8A4FF6FF400440B089044315
:1029D000AC8201A8FFF786FA1F48874202D1DDF8D2
:1029E00010A001E0DDF80CA0A88900F4004040B17F
:1029F0000AEBCA0000EB0A1031684900B0FBF1F89D
:102A000007E00AEBCA0000EB0A1031688900B0FB4E
:102A1000F1F86420B8FBF0F004012009642101FB07
:102A20001089A88900F4004040B1322000EBC900B1
:102A3000B0FBF1F000F00700044308E0322000EBA7
:102A400009106421B0FBF1F000F00F0004432C8169
:102A500006B0BDE8F08700000038014001468888D4
:102A6000C0F308007047C1F308028280704700BFBE
:102A7000FEE700000FB4054B10B503A9044A029805
:102A800000F0F4F810BC5DF814FB000015340008E9
:102A90005C0000200FB4084B10B504A902AA0398EB
:102AA00000F0E4F8044602A9002000F076FC20467D
:102AB00010BC5DF814FB00009B33000837B51446CA
:102AC0000846064B6A46214600F0D0F8044669469F
:102AD000002000F062FC20463EBD00009B33000851
:102AE000004870471401002002E008C8121F08C106
:102AF000002AFAD170477047002001E001C1121F7F
:102B0000002AFBD1704700002DE9FF5FDDE90220BC
:102B1000010DDDF838B0024318D044F61050A1F290
:102B2000FF3141430D140F98012820D0A5EB0B0075
:102B3000401C5FEA000A4FF00004474EDFF81C918A
:102B4000A046504616D5CAF1000728E00F98012488
:102B500043A2012808D0002100980F9BC0E9002162
:102B6000C0E90243BDE8FF9F6FEA0B01F4E7CBF138
:102B70000000DEE7074612E0F80707D0224633469A
:102B800040464946FDF77BFD80468946224633464E
:102B900010461946FDF773FD04460E467F10002FC0
:102BA000EAD1DDE90201BAF1000F42464B4602DAF2
:102BB000FDF765FD01E0FDF7D4FD04460E46002259
:102BC000284BFDF755FE03D84FF0FF30014607E0D4
:102BD0000022254B20463146FDF7AAFCFDF730FECA
:102BE000102409E0002C0ADB0A220023FDF700FC78
:102BF000019B30321A55641E50EA0102F2D1641C66
:102C0000019AC4F1110314440F9A012A03D001223E
:102C100008430DD10AE0084304D000204FF0110B07
:102C20000F9080E7A3EB0B056D1E0DE05B4504DD07
:102C30004FF0000205F1010504E003DA4FF0000255
:102C4000A5F10105002AECD000980F99C0E90231E6
:102C5000C0E9004586E70000000024400000F03F86
:102C6000300000000000F0430000E03F2DE9FF4F7E
:102C700095B09B468946064600250FE2252877D168
:102C800000242746F84A0121059400E0044316F881
:102C9000013F203B01FA03F01042F7D130782A2897
:102CA00011D06FF02F033078A0F13002092A16D826
:102CB000059A44F0020402EB820203EB4202104444
:102CC000761C0590EFE759F8042B0592002A03DAE9
:102CD000504244F40054059044F00204761C3078CD
:102CE0002E2816D116F8010F44F004042A280DD01E
:102CF0006FF02F023078A0F13003092B09D807EBD1
:102D0000870302EB4303C718761CF3E759F8047BEB
:102D1000761C30786C280FD006DC4C2817D0682839
:102D20000DD06A2814D104E0742810D07A280FD16D
:102D30000DE044F400140AE044F4801401E044F48B
:102D400040147278824202D104F58014761C761CFD
:102D5000307866280BD013DC582877D009DC00289F
:102D600075D04528F6D04628F4D047281AD19DE1E1
:102D700018E0632835D0642879D0652812D195E110
:102D8000702873D008DC6728F1D069286FD06E28CE
:102D90000DD06F2806D1B5E073282CD0752875D0DA
:102DA000782874D05A46179990476D1C75E1C4F382
:102DB0000250022809D003280DD0D9F800100428A9
:102DC0000DD00D6009F1040967E1D9F80010EA1788
:102DD000C1E90052F6E7D9F800100D80F2E70D7056
:102DE000F0E719F8041B8DF8001000208DF80100A1
:102DF000EA46012003E059F804AB4FF0FF306107C9
:102E00004FF0000102D40DE008F101018846B942FB
:102E10000FDA8045F8DB1AF808100029F4D108E031
:102E200008F1010188468142FADB1AF808100029EE
:102E3000F6D105985B46A0EB080721463846179A5D
:102E400000F094FA284400EB080507E04DE029E182
:102E50000DE01AF8010B5A4617999047B8F101088E
:102E6000F7D25B4621463846179A13E142E00A2220
:102E70000092C4F302524FF0000A022A08D059F817
:102E800004CB032A4FEAEC710AD00DE029E02AE0D6
:102E900009F1070121F00702F2E802C1914609E0B9
:102EA0000FFA8CFC4FEAEC71042A03D14FFA8CFC28
:102EB0004FEAEC71002907DA0A460021DCF1000C28
:102EC00061EB02012D2202E0220504D52B228DF8B0
:102ED0000420012203E0E20701D02022F7E7904618
:102EE00059E00A2102E010220DE010214FF0000A03
:102EF00000910BE010224FF0000A44F00404082770
:102F0000009203E008224FF0000A0092C4F302523C
:102F1000022A05D059F804CB0021032A08D009E081
:102F200009F1070121F00702F2E802C1914605E02C
:102F30001FFA8CFC042A01D10CF0FF0C4FF00008A2
:102F4000220728D5702806D0009B83F0100353EA8F
:102F50000A0305D00EE040228DF80420012208E08B
:102F60005CEA010206D030228DF804208DF80500BD
:102F700002229046009B83F0080353EA0A030AD119
:102F80005CEA010201D1620705D530228DF80420E8
:102F90004FF001087F1E582804D034A003900EA8DB
:102FA00002900DE036A0F9E753466046009AFDF71F
:102FB0001FFA84460398825C0298401E02900270B9
:102FC0005CEA0100F0D1029806A9081A00F1200A73
:102FD000600702D524F4803400E00127574502DD64
:102FE000A7EB0A0000E0002000EB0A010090059822
:102FF0004144401A0590E00306D45B462146179AE7
:10300000059800F0B3F90544002706E001A85A46E8
:10301000C05D179990476D1C7F1C4745F6DBE003A8
:103020000CD55B462146179A059800F09FF9054498
:1030300004E030205A46179990476D1C0099481EAD
:1030400000900029F5DC08E0029802995A460078C1
:10305000491C0291179990476D1CBAF10001AAF121
:10306000010AF1DC65E1000009280100303132334A
:1030700034353637383961626364656600000000B4
:10308000303132333435363738394142434445469E
:103090000000000000F058F90544761C3078002844
:1030A0007FF4ECAD19B02846BDE8F08F620700D47C
:1030B000062709F1070222F0070CFCE80223E1468B
:1030C00003F000485FEA080C02D00FF2702C0DE00C
:1030D0005FEA045C02D50FF2682C07E05FEAC47C6B
:1030E00002D00FF2602C01E0AFF2700C4FF0FF380D
:1030F00023F00043CDF850C065280CD006DC4528ED
:1031000009D046281DD047283DD13DE0662818D07B
:1031100067287ED138E00021112F01DB112000E06B
:10312000781CCDE9000106A90EA8FFF7EDFCDDE94A
:103130000F010E9A03910021009207F1010A0491F8
:103140004DE04FF000400097CDE9011006A90EA810
:10315000FFF7DAFCDDE90F0203920E9B11990022C2
:10316000DDF80CA00093049211B9791C00EB010A60
:10317000B7EB0A0004D4C0F1FF3007F1010A049054
:10318000AAEB0700019044E0012F00DA012700219B
:10319000112F01DD112000E03846CDE9000106A91C
:1031A0000EA8FFF7B1FCDDE90F010E9A0391002193
:1031B00004910092BA4621070CD40399514500DAD4
:1031C0008A46BAF1010F05DD009AAAF10101515CAE
:1031D000302908D0B84202DA10F1040F06DA0121D2
:1031E000CDE9011015E0AAF10101E9E7002805DCAD
:1031F000049901440491AAEB000102E0411C5145ED
:1032000000DD8A460499401A401C01904FF00040AE
:103210000290200704D40198504501DBCDF80480CA
:1032200000208DF84F0002980DF14F07B0F1004FCC
:1032300025D02B200E9002984FF0020800280CDABF
:10324000404202902D200E9007E00A210298FDF7DF
:10325000B9F83031029007F8011DB8F10001A8F16A
:103260000108F2DC02980028EFD1791E0E98087050
:10327000307800F0200040F0450007F8020D12A859
:10328000C01B00F107081498007800B1012000EB82
:103290000A01019801EBE07105984144401A401E73
:1032A0000590E00306D45B462146179A059800F086
:1032B0005DF805441498007818B15A46179990475C
:1032C0006D1CE00324D55B462146179A059800F053
:1032D0004DF805441CE00498002807DBDDE90301F4
:1032E000884203DD0098405C179901E0179930206F
:1032F0005A469047049805F10105401C0490019836
:10330000401E019004D12E205A46179990476D1CFB
:10331000BAF10001AAF1010ADDDC05E017F8010BA2
:103320005A46179990476D1CB8F10001A8F10108A1
:10333000F4DC5B462146179A0598ABE62D000000A9
:103340002B000000200000002DE9F041044600257C
:103350001E461746880404D405E039462020B047AD
:103360006D1C641EF9D52846BDE8F0812DE9F041B9
:10337000044600251E469046C80301D5302700E0CC
:103380002027880404D505E041463846B0476D1C27
:10339000641EF9D52846BDE8F0810A68531C0B600D
:1033A0001070704700B585B06846FEF79BFD044974
:1033B0000098B0FBF1F00349086005B000BD0000C3
:1033C00040420F003000002030B50446FEF790F870
:1033D000054600BFFEF78CF8401B04EB4401C1EB2F
:1033E000C411B0EBC10FF5D302480068401C01497D
:1033F000086030BD3400002030B50446FEF778F890
:10340000054600E000BFFEF773F8401BA042F9D369
:1034100030BD000070B504460D46A1B20548FFF767
:1034200022FB00BF40210348FFF750FA0028F9D0E3
:10343000204670BD0048004008B501210520FEF778
:1034400031FD4FF48070ADF8000003208DF80200CC
:1034500018208DF8030069460148FDF7ABFF08BD51
:103460000008014008B501210820FEF71BFD4FF4BC
:103470008060ADF8000003208DF8020018208DF860
:10348000030069460748FDF795FF4FF40060ADF86B
:10349000000004208DF8030069460248FDF78AFF0A
:1034A00008BD0000000C014010B502E022A0FFF7AB
:1034B000E1FA322224A125A000F0E4FB0028F5D196
:1034C00002E023A0FFF7D6FA32221FA125A000F0C8
:1034D000D9FB0028F5D102E025A0FFF7CBFA4FF485
:1034E000FA7219A126A000F0CDFB0028F4D102E069
:1034F0002BA0FFF7BFFA4FF4FA7213A12CA000F033
:10350000C1FB0028F4D102E038A0FFF7B3FA4FF472
:10351000FA720DA13BA000F0B5FB0028F4D102E047
:1035200042A0FFF7A7FA322207A144A000F0AAFBAD
:103530000028F5D110BD00004154CFECD3A6CAA796
:10354000B0DC0D0A000000004F4B000041540000A9
:10355000535441C4A3CABDC9E8D6C3CAA7B0DC0D41
:103560000A00000041542B43574D4F44453D310064
:10357000C1ACBDD357494649CAA7B0DC330D0A00D8
:1035800041542B43574A41503D226D6F6368656E2D
:10359000222C22313233343536373839612200005B
:1035A000C1ACBDD357494649CAA7B0DC340D0A00A7
:1035B00041542B4D515454555345524346473D3089
:1035C0002C312C224D5154544944222C22757365C0
:1035D000726E616D65222C2270617373776F7264F5
:1035E000222C302C302C222200000000C1ACBDD394
:1035F0004D515454B7FECEF1C6F7CAA7B0DC0D0A40
:103600000000000041542B4D515454434F4E4E3D49
:10361000302C2262726F6B65722E656D71782E6927
:103620006F222C313838332C31000000B6A9D4C4B5
:10363000D6F7CCE2CAA7B0DC0D0A000041542B4DEE
:103640005154545355423D302C226D6F6368656E62
:1036500039323237222C3000FFF7A4FE4FF440708D
:10366000FEF7BAFB164800684FF47A72B0FBF2F12D
:10367000B1F1807F00D31DE021F07F40401E4FF06C
:10368000E022506150170F22002807DA13071D0EA1
:103690000C4B00F00F04241F1D5503E013071C0EF4
:1036A000094B1C5400BF00204FF0E022906107201E
:1036B000106100BFFDF702FB01E000F007F8FCE736
:1036C0000000002018ED00E000E400E010B53248F2
:1036D000007801285EDB3048B0F90400012804DBE3
:1036E00000202D498880FDF7E7FD2B48B0F9060042
:1036F000022804DB00202849C880FDF7EDFD26489C
:10370000B0F90800032804DB002023490881FDF7F5
:103710001BFE2148B0F90A00052804DB00201E49E1
:103720004881FDF779FD1C48B0F90C000A2804DB3C
:10373000002019498881FDF7ADFD1748B0F90E004A
:10374000192804DB00201449C881FDF7D5FD124873
:10375000B0F91000642804DB00200F490882FDF74F
:1037600089FD0D48B0F91200B0F5FA7F04DB0020A6
:1037700009494882FDF730FD0748B0F91400B0F55B
:103780007A7F04DB002004498882FDF755FD002084
:103790000149087010BD00001801002010B50A484A
:1037A0000068012804D0022805D0032809D105E0CB
:1037B000FDF7CCFB05E0FDF7B3FB02E0FDF7BEFA39
:1037C00000BF00BF10BD00008000002010B586B013
:1037D0000446FFF747FE01218804FEF743FB0294ED
:1037E0000020ADF80C00ADF80E00ADF81000ADF8FB
:1037F00014000C20ADF8120002A91048FFF7C2F81F
:103800004FF4A060FEF7E8FA27208DF804000120AD
:103810008DF805008DF806008DF8070001A8FEF769
:10382000A3FA01210548FEF7F6FF012240F22551D7
:103830000248FFF782F806B010BD000000480040C3
:1038400010B52249224800F003F900283DD0214854
:10385000007800F080001F4908701D48007830385B
:10386000072830D2DFE800F0040B121920272E00C1
:103870001848007840F040001649087024E01548C8
:10388000007840F01000134908701DE011480078DE
:1038900040F020000F49087016E00E48007840F014
:1038A00002000C4908700FE00A48007840F004005C
:1038B0000849087008E00748007840F0080005490A
:1038C000087001E000E000BF00BF10BD480000200C
:1038D000440000205800002010B510210548FDF7D5
:1038E000FDFD4FF47A70FFF76FFD10210148FDF7E1
:1038F000F7FD10BD000801402DE9FE4314480068A3
:103900000A2190FBF1F41348006890FBF1F201FBEF
:1039100012051048006890FBF1F60F48006890FB14
:10392000F1F201FB12070C48006890FBF1F83B46EE
:1039300042460A490A48CDE900650294FFF7AAF811
:10394000642208A1064800F09DF9BDE8FE8300004E
:103950007800002074000020700000206C3D0008FA
:10396000340A00204F4B000000B587B00121C80287
:10397000FEF798FA4720ADF8100044F61F60ADF846
:1039800014000020ADF81600ADF812008DF81800F4
:1039900004A91748FEF7D8FD6020ADF8000001200B
:1039A000ADF802000020ADF8040040F2DC50ADF8A4
:1039B00006000020ADF80800ADF80A00ADF80C00D4
:1039C000ADF80E0069460A48FEF760FC0821084879
:1039D000FEF7A8FC01210648FEF714FC012104486B
:1039E000FEF72BFC01210248FEF71BFC07B000BDCF
:1039F000002C01400FB438B505A800901248009A79
:103A00000499FFF75BF8002000900F48FCF7A6FB35
:103A1000054600BF0D48008800F040000028F9D09E
:103A200000240CE00848005D0849091D088000BF1B
:103A30000648008800F040000028F9D0641CAC4221
:103A4000F0D338BC5DF814FBD801002000440040DE
:103A500070B505460C461048007808B9002070BDC6
:103A60000E48FCF77BFB18B900200B490870F6E7FD
:103A70000A4800782870002020600848FCF76EFB98
:103A8000012804D90548401CFCF778FB2060002081
:103A9000014908700120E2E7520000205300002095
:103AA00010B586B00446012144F20400FEF7FAF98D
:103AB0004FF40070ADF8140003208DF816001820A4
:103AC0008DF8170005A91E48FDF774FC4FF48060BF
:103AD000ADF8140004208DF8170005A91848FDF76B
:103AE00069FC01940020ADF80800ADF80A00ADF8BB
:103AF0000C00ADF810000C20ADF80E0001A9114823
:103B0000FEF740FF4FF4A060FEF766F925208DF820
:103B1000000001208DF801008DF802008DF80300EF
:103B20006846FEF721F9012240F225510548FEF7CB
:103B300004FF01210348FEF76EFE06B010BD000031
:103B4000000801400038014008B501210420FEF7BB
:103B5000A9F91020ADF8000003208DF80200102014
:103B60008DF8030069460448FDF724FC1021024843
:103B7000FDF7B6FC08BD00000008014070B5044622
:103B800000250948008800F4004058B1002006498B
:103B90000988C1F30E01054A505421461046FCF72E
:103BA000C1FA0546284670BD5A000020D8050020FD
:103BB0002DE9F04705462D48008800F40040002814
:103BC00052D0002029490988C1F30E01284A5054D7
:103BD00028A11046FCF7A6FA0746002F40D02C215A
:103BE0003846FCF7B1FA8046B8F1000F37D02C21E7
:103BF00008F10100FCF7A8FA8146B9F1000F2DD0B9
:103C00002C2109F10100FCF79FFA8246BAF1000F5E
:103C100023D00AF101012846FCF7A7FA2846FCF751
:103C20009DFA2844441E02E000202070641EAC422D
:103C300005D320780A28F7D020780D28F4D028461C
:103C4000FCF78CFA0646632E01D20020A85500200E
:103C5000064908800120BDE8F08700BF00BF00BF13
:103C600000200249088000BF0020F4E75A0000202D
:103C7000D80500202B4D51545453554252454356BC
:103C80003A0000002DE9F04105460E461446002793
:103C9000002011490880294610A0FFF7ABFEBCB1F7
:103CA0000FE00A20FFF790FB0B48008800F400406B
:103CB00038B13046FFF762FF00B106E00020064948
:103CC0000880601E80B20400EBD100BF04B9012758
:103CD0003846BDE8F08100005A00002025730D0A27
:103CE0000000000000404040404040404040414112
:103CF00041414140404040404040404040404040C1
:103D0000404040404005020202020202020202025A
:103D10000202020202202020202020202020200257
:103D200002020202020290909090909010101010E7
:103D30001010101010101010101010101010101083
:103D40000202020202028888888888880808080817
:103D500008080808080808080808080808080808E3
:103D60000202020240000000E53C000841542B4DD5
:103D70005154545055423D302C226D6F6368656E2E
:103D800039323237222C227B74656D703A256425D6
:103D9000645C2C68756D693A256425645C2C6164EB
:103DA000635F6E756D3A25645C7D222C302C30008B
:103DB000D03D00080000002018010000E82A00089B
:103DC000E83E000818010020B80D0000F82A00089D
:103DD00000A24A04000000000000000001020304E9
:103DE00006070809000000000102030401020304A1
:103DF0000607080902040608000000000000000091
:103E000000000000000000000100000000000000B1
:103E100000000000000000000000000000000000A2
:103E20000000000000000000000000000000000092
:103E30000000000000000000000000005A00010027
:103E40000000000000000000000000000000000072
:103E50000000000000303032303232323230323244
:103E60004C00000000000000000000000000000006
:103E70000000000000000000000000000000000042
:103E80000000000000000000000000000000000032
:103E90000000000000000000000000000000000022
:103EA0000000000000000000000000000000000012
:103EB0000000000000000000000000000000000002
:103EC00000000000000000009A99193E0AD7A33BA9
:103ED000CDCC0C3F000000000000000000000000FE
:083EE0000000000000000000DA
:04000005080000ED02
:00000001FF
